:020000040040BA
:1000000040D60020610840005D0840005D084000C7
:100010005D0840005D0840005D08400000000000F1
:1000200000000000000000000000000091204000DF
:100030005D084000000000003121400075214000B3
:100040005D0840005D0840005D0840005D0840001C
:100050005D0840005D0840005D0840005D0840000C
:100060005D0840005D08400000000000F10640000F
:1000700001074000110740005D0840005D08400096
:1000800000000000000000005D0840005D08400026
:100090005D0840005D0840005D0840005D084000CC
:1000A0005D0840005D0840005D0840005D084000BC
:1000B0005D0840005D0840005D0840005D084000AC
:1000C0005D0840005D0840005D08400010B5054C2B
:1000D000237833B9044B13B10448AFF300800123F4
:1000E000237010BD3C04002000000000C427400025
:1000F00008B5034B1BB103490348AFF3008008BDAB
:100100000000000040040020C427400000B583B078
:100110006423009341F21113984208D04FF0A003DA
:1001200083F31188BFF36F8FBFF34F8FFEE701F0AA
:1001300001FA01904FF47A75054C294601A801F0A7
:10014000ADFB00231A466946206800F04FFEF4E735
:1001500058040020222808D04FF0A00383F3118810
:10016000BFF36F8FBFF34F8FFEE700B583B0084D2D
:1001700000264FF0FF34224601A9286800F024FF32
:10018000019B642BF7D1304600F061F80196F0E74F
:100190005804002000B583B000F064F8164AD36814
:1001A00023F4E0631B041B0C43F0BF6343F40033F0
:1001B000D36000F07BF800F03FF80022042101201A
:1001C00000F0EAFD0D4B1860A8B100240194022351
:1001D0000093222382220A490A4801F071F801940F
:1001E0000123009341F2111382220749074801F0CD
:1001F00067F801F051F9FEE700ED00E05804002037
:100200008427400055014000882740000D01400030
:1002100088B908B539B901F04DFF572000F02AF927
:1002200001F06AFF08BD01F045FF572000F016F904
:1002300001F062FFF6E7704708B54FF060515720B4
:1002400000F034F900210846FFF7E2FF08BD00B1D5
:10025000704708B501F02EFF572000F017F901F0A4
:100260004BFF08BD08B50E4800F0D8FB3E2100202A
:1002700000F086FA00F0AEFA0028FBD000F0B2FAE7
:10028000084B094A9A6200F0B5FA0028FBD010200A
:1002900000F046FA00F03AFB014800F0BFFB08BD51
:1002A000000E270700040E40013F132070B52C48B4
:1002B00000F0D0FA0B2000F0A5FA0C2000F0A2FA12
:1002C0000D2000F09FFA274B4FF400021A631A61C9
:1002D000C3F8A020244C04256561C4F8A0506566CD
:1002E000C4F8905065656562C4F88050226F22F0B2
:1002F00004022267626F22F0040262674FF48012E8
:100300001A631A61C3F8A0204FF48032226322617D
:10031000C4F8A0204FF480021A631A61C3F8A02029
:100320004FF000620C21114800F04AF9104E31469E
:10033000032000F0BBF83146284600F0B7F86566A8
:10034000C4F8905065656562C4F88050236F23F04F
:1003500004032367636F23F00403636770BD00BF6A
:1003600050140E4000120E40000E0E4000100E40C1
:10037000010000084264B1F1C05F2ED013D8B1F182
:10038000006F1DD0B1F1805F09D1036F1343036784
:10039000416F436F0B4023EA0203436700E009B15A
:1003A00042600CE07047B1F1005F20D0F8D3B1F1AA
:1003B000405F04D021F08051B1F1205FF0D170474F
:1003C000016F036F0B4023EA02030367416F436F22
:1003D0000B4023EA02034367E2E7016F036F0B4020
:1003E00023EA02030367436F13434367D8E7036FAE
:1003F00013430367436F13434367D1E7416412F02C
:10040000010F14BF4166016612F00A0F14BF0162AA
:10041000416212F0020F04D0C0F880104161016007
:10042000704712F0080F18BFC0F88410F6E710B438
:100430004164019C44B1416643B1016542B101632D
:100440000161016010BC70470166F5E74165F5E7A1
:100450004163F5E7C06C7047806C7047430903F552
:10046000001303F207735B0200F01F0001228240B9
:100470001A637047430903F5001303F207735B0225
:1004800000F01F00012282405A637047430903F5C0
:10049000001303F207735B02996B00F01F00012247
:1004A0008240114214BF5A631A63704770B582B01C
:1004B0000D46440904F5001404F20774640201F0C7
:1004C000F043B3F1005F54D02DD8B3F1805F3FD03B
:1004D000B3F1C05F10D100F01F0001268640324604
:1004E0004FF0C0512046FFF745FF15F0010012BF45
:1004F00066662666012014E0B3F1006F10D100F0AB
:100500001F000126864032464FF000612046FFF76B
:1005100031FF15F0010012BF66662666012000E07B
:10052000002002B070BD01F0E042B2F1405F31D076
:10053000B3F1205F18BF0020F3D100F01F010126A6
:100540002A4606FA01F12046FFF758FF3046E8E751
:1005500000F01F000126864032464FF080512046B1
:10056000FFF708FF15F0010012BF6666266601203E
:10057000D7E700F01F000126864032464FF00051B9
:100580002046FFF7F7FE15F0010012BF66662666EB
:100590000120C6E701F0605200F01F01012605EAC4
:1005A00006030093C5F38003B2F1605F14BF00221D
:1005B000012206FA01F12046FFF739FF3046B0E785
:1005C00070B582B005460E46144602F0F043B3F112
:1005D000005F40D023D8B3F1805F30D0B3F1C05F6B
:1005E0000BD10A464FF0C051FFF7C4FE14F00100D2
:1005F00012BF6E662E6601200FE0B3F1006F0BD1C3
:100600000A464FF00061FFF7B5FE14F0010012BF7B
:100610006E662E66012000E0002002B070BD02F080
:10062000E042B2F1405F22D0B3F1205F18BF00205A
:10063000F3D122462846FFF7E1FE0120EDE70A4606
:100640004FF08051FFF796FE14F0010012BF6E6666
:100650002E660120E1E70A464FF00051FFF78AFEBF
:1006600014F0010012BF6E662E660120D5E704F07B
:10067000605204F001030093C4F38003B2F1605FA1
:1006800014BF00220122FFF7D2FE0120C5E70000BF
:100690002DE9F84307460E46FFF7DCFE05463846CF
:1006A000FFF7DAFE054013D00E4C04F1700903E0A9
:1006B00010344C450CD05DB12068B042F8D161686F
:1006C0002942F5D0E3689847636825EA0305EFE718
:1006D000054B1B6823B1054B1B680BB13846984787
:1006E000BDE8F883640400205C040020600400205E
:1006F00008B50B210148FFF7CBFF08BD000E0E40E7
:1007000008B50C210148FFF7C3FF08BD00100E40DB
:1007100008B50D210148FFF7BBFF08BD00120E40D0
:10072000164A136B23F0700303431363936E13F0A5
:10073000080F0AD14FF4006310498A6E12F0080FB7
:1007400003D1013BF9D1012070470C4A136B23F010
:10075000030343F002031363906E10F008000AD104
:100760004FF4006305498A6E12F0080F05D1013B72
:10077000F9D10120704700207047704700040E40F7
:1007800038B111490B6A114A1A40114B13430B62DD
:1007900070470D48026A09028BB222F45C1222F003
:1007A0000302134343F45C1343F001030362024664
:1007B000936E13F0010FFBD0034A136A43F09B734F
:1007C00043F480331362704700040E40FCFFC8FE00
:1007D00002003701024B986E00F48030704700BF72
:1007E00000040E40024B4FF000529A62704700BF67
:1007F00000040E40024B986E00F00200704700BFEC
:1008000000040E4022281CD81F280BD8104B9A69D0
:1008100001238340934316D0012383400C4A136184
:100820000020704720380A4BD3F808210123834069
:1008300093430AD001238340054AC2F800310020C7
:10084000704701207047002070470020704700BFAC
:1008500000040E404FF4004343607047FEE7000081
:1008600008B5224A224B9A4229D91A46214B9A426C
:100870000CD2581E801A20F0030004301B4B184481
:1008800053F8041B42F8041B8342F9D100BF1A4AF3
:100890001A4B9A420BD21346194AD21A22F003027B
:1008A00004321A44002143F8041B9A42FBD1154A32
:1008B000154B9A6001F006FEFFF76CFCFEE70B4A51
:1008C0000B4B9A42E2D20B4AD11A0848031F0B4441
:1008D000043A0029DAD0C0F104001946043B096843
:1008E00042F80419C342F8D1D0E700BFC427400042
:1008F000000000203C0400203C0400203CA6002016
:100900003BA600200000400000ED00E03C4B1A6BCD
:1009100002F00303012B24D012F0020F0DD1002BA3
:1009200053D1384B5B6A13F0800F374B14BF4FF431
:1009300000424FF4FA421A6047E0314B1B6A13F051
:10094000807F2AD1304B314A1A602D4B1B6A03F04D
:100950007003102B49D0202B22D12B4B2C4A1A602C
:100960001EE0274B1B6A13F0807F03D0264B284ADA
:100970001A602AE0244B254A1A60214B1B6A03F0B7
:100980007003102B05D0202B1FD11F4B204A1A605B
:100990001BE01D4B1F4A1A6017E01B4B1C4A1A60D4
:1009A000174B1B6B03F00303022B154B07BF996A10
:1009B0009A6AD96ADA6A1448C1F30A41036801FBEA
:1009C0000333D2B2B3FBF2F303600D4B1B6B03F0A6
:1009D0007003702B0DD00A4B1A6BC2F302120A4B34
:1009E0001B68D340084A13607047074B094A1A60D6
:1009F000D6E7054B1B68084AA2FB03235B08F1E717
:100A000000040E4000140E400000002000093D00CC
:100A1000001BB70000127A00ABAAAAAA1A4B984290
:100A200007D84FF08063194A136002F50072136013
:100A30007047174B984206D2164B144A136002F5C2
:100A4000007213607047144B984206D2134B0F4A42
:100A5000136002F5007213607047114B984206D87C
:100A6000104B0A4A136002F50072136070470E4B78
:100A7000984294BF4FF004230C4B044A136002F5D4
:100A800000721360704700BFFF2C3101000A0E4056
:100A9000005A620200010004008793030002000470
:100AA000FFB3C40400030004FFE0F50500050004E3
:100AB00000F1080343604FF0FF328260C3600361BE
:100AC00000230360704700230361704730B40D6852
:100AD000B5F1FF3F11D000F108031C465B681A68AE
:100AE000AA42FAD963684B6099608C6061600861C2
:100AF00003680133036030BC70470469F2E703699F
:100B0000416882688A60416851605A68824204BFC5
:100B100082685A60002202611A68013A1A601868F5
:100B2000704710B5044601F0C5FAA46B01F0E4FA71
:100B3000B4FA84F0400910BD70B504461546866BC2
:100B4000026C5AB903681BB100200136A66370BD60
:100B5000806801F061F80023A360F6E76DB9406892
:100B600001F0D4FC6368226C13446360A268934272
:100B700019D3236863602846E7E7C06801F0C6FC24
:100B8000226C5142E3689B1AE3602268934202D2CE
:100B9000A3680B44E360022D01D00020D5E726B105
:100BA000013E0020D1E72846CFE70020CDE708B579
:100BB0000346026C62B10846D9681144D960D3F883
:100BC00008C0614524BF1968D960D96801F09EFC4E
:100BD00008BD70B582B00190846C64B1A26BE36B08
:100BE0009A4211D34FF0A00383F31188BFF36F8FA4
:100BF000BFF34F8FFEE74FF0A00383F31188BFF3DD
:100C00006F8FBFF34F8FFEE7A26B934203D800258F
:100C1000284602B070BD94F8456076B2002201A962
:100C20002046FFF789FF0546B6F1FF3F0AD1636A08
:100C3000002BEDD004F1240000F012FF002818BFB3
:100C40000125E5E700F07CFC8642E1D27F2E04D04E
:100C5000731C5BB284F84530DAE74FF0A00383F3EE
:100C60001188BFF36F8FBFF34F8FFEE770B5054656
:100C700001F020FA95F8454064B2002C19DD05F129
:100C8000240608E06B6AA3B1304600F0E9FE68B9BB
:100C9000013C64B26CB1AB6C002BF3D02846FFF77B
:100CA00098FF0028F4D000F0A1FFF1E700F09EFFCC
:100CB000EEE7FF2385F8453001F01EFA01F0FAF95E
:100CC00095F8444064B2002C0FDD05F1100602E0F7
:100CD000013C64B24CB12B693BB1304600F0C0FE20
:100CE0000028F5D000F082FFF2E7FF2385F84430BA
:100CF00001F002FA70BD38B580B10D460446C36BF1
:100D00001BB1026CA2FB03238BB14FF0A00383F352
:100D10001188BFF36F8FBFF34F8FFEE74FF0A00333
:100D200083F31188BFF36F8FBFF34F8FFEE701F09E
:100D3000C1F92268216CE36B01FB03F3D018A060BA
:100D40000020A06362605B1A1A44E260FF2384F80B
:100D5000443084F84530B5B923691BB901F0CCF9AA
:100D6000012038BD04F1100000F07AFE0028F5D013
:100D70004FF0E0234FF08052C3F8042DBFF34F8FA4
:100D8000BFF36F8FEAE704F11000FFF791FE04F163
:100D90002400FFF78DFEE1E770B548B10C4605462B
:100DA000A1FB002323B901FB00F010F14D0F08D97E
:100DB0004FF0A00383F31188BFF36F8FBFF34F8F02
:100DC000FEE74C3001F092FA064658B164B100F1EA
:100DD0004C033360F563346401213046FFF78BFF29
:100DE0000023B364304670BD0346F2E72DE9F043BB
:100DF00085B0019288B10E461D460446B1B1022D60
:100E000020D1E36B012B1DD04FF0A00383F3118899
:100E1000BFF36F8FBFF34F8FFEE74FF0A00383F355
:100E20001188BFF36F8FBFF34F8FFEE7036C002B6A
:100E3000E5D04FF0A00383F31188BFF36F8FBFF3AA
:100E40004F8FFEE700F0D8FE804650B9019B53B1AA
:100E50004FF0A00383F31188BFF36F8FBFF34F8F61
:100E6000FEE74FF0000800274DE0A76B2A46314609
:100E70002046FFF761FEA36CB3B1022D00F0A08005
:100E80002046FFF7A6FE48B14FF0E0234FF0805216
:100E9000C3F8042DBFF34F8FBFF36F8F01F02CF910
:100EA000012005B0BDE8F083636A63B90028F5D07E
:100EB0004FF0E0234FF08052C3F8042DBFF34F8F63
:100EC000BFF36F8FEAE704F1240000F0C9FD0028AA
:100ED000E4D04FF0E0234FF08052C3F8042DBFF36D
:100EE0004F8FBFF36F8FD9E701F006F90020D8E7E5
:100EF00002A800F02BFE14E02046FFF7B7FE00F03A
:100F000007FC4FF0010801F0D5F8A26BE36B9A42A1
:100F1000ABD3022D4AD0019B002BE5D0B8F1000FD6
:100F2000E6D001F0E9F800F0FDFA01F0C3F894F81A
:100F3000442052B2B2F1FF3F08BF84F8447094F8E5
:100F4000452052B2B2F1FF3F08BF84F8457001F06E
:100F5000D3F801A902A800F005FE00BB01F0AAF831
:100F6000D4F83890D4F83C8001F0C6F8C145C3D11C
:100F7000019904F1100000F031FD2046FFF776FEE4
:100F800000F0C6FB0028BCD14FF0E0234FF08052A8
:100F9000C3F8042DBFF34F8FBFF36F8FB1E7204627
:100FA000FFF764FE00F0B4FB00207AE7A76B2A4647
:100FB00031462046FFF7C0FDA36C002B3FF474AF11
:100FC000002F7FF46BAF5BE72DE9F04184B0019215
:100FD00088B10E460446B9B100F00EFE8046F8B95D
:100FE000019BFBB14FF0A00383F31188BFF36F8F18
:100FF000BFF34F8FFEE74FF0A00383F31188BFF3D9
:101000006F8FBFF34F8FFEE7036C002BE4D04FF0E0
:10101000A00383F31188BFF36F8FBFF34F8FFEE7F9
:101020004FF00008002738E031462046FFF7BFFDAB
:10103000013DA56323692BB901F05EF8012004B0DE
:10104000BDE8F08104F1100000F00AFD0028F3D0A3
:101050004FF0E0234FF08052C3F8042DBFF34F8FC1
:10106000BFF36F8FE8E701F047F80020E7E702A839
:1010700000F06CFD1CE02046FFF7F8FD00F048FB97
:1010800009E02046FFF7F2FD00F042FB2046FFF7A3
:1010900048FD002846D14FF0010801F00BF8A56B80
:1010A000002DC1D1019B002BDDD0B8F1000FDED0A7
:1010B00001F022F800F036FA00F0FCFF94F844301A
:1010C0005BB2B3F1FF3F08BF84F8447094F8453039
:1010D0005BB2B3F1FF3F08BF84F8457001F00CF834
:1010E00001A902A800F03EFD0028CAD12046FFF762
:1010F00018FD0028BFD0019904F1240000F06EFC17
:101100002046FFF7B3FD00F003FB0028C3D14FF0EA
:10111000E0234FF08052C3F8042DBFF34F8FBFF38D
:101120006F8FB8E700208AE770B504460D46164673
:1011300000F0C0FF94F844305BB2B3F1FF3F04BF4E
:10114000002384F8443094F845305BB2B3F1FF3F9C
:1011500004BF002384F8453000F0CEFFA36B1BB121
:101160002046FFF783FD70BD3246294604F1240076
:1011700000F04CFCF4E70000074B1B681B6823B928
:10118000064B4FF0FF321A607047034B1B68DB6859
:101190001A68024B1A60704744050020DC040020E6
:1011A00080B5174D174F184EDFF860802B68BBB124
:1011B00000F080FFFB68DC68201DFFF7A0FC3368AF
:1011C000013B33602B68013B2B6000F095FF206BE7
:1011D00001F024F9204601F021F92B68002BE7D11A
:1011E000D8F80030012BE1D94FF0E0234FF08052C6
:1011F000C3F8042DBFF34F8FBFF36F8FD6E700BF47
:101200001405002018050020FC04002070050020B3
:1012100070B504460D46234B1E68234B18680430F6
:10122000FFF76DFC48B9204B1A6820490B68D06A5B
:101230000122824023EA02030B60B4F1FF3F0DD08C
:101240003444194B1B685C60A6421DD9184B1868C2
:10125000154B19680431FFF739FC70BD002DEFD034
:10126000144A5168104B1868816018688C68C46013
:101270001868043060601868043088601B685A6120
:10128000136801331360E8E70B4B1868064B1968C5
:101290000431FFF71BFC094B1B68A34284BF074BBB
:1012A0001C60DAE7F8040020D4050020F4040020D4
:1012B000400500200005002044050020DC0400203B
:1012C0002DE9F84307460C4698469500284601F05C
:1012D0000DF8002800F0BD808146502001F006F88E
:1012E0000646002800F0AF805022002101F0A8F946
:1012F000C6F830906CB1611E06F13303093411F861
:10130000012F03F8012F0AB1A142F8D1002386F87A
:101310003D30089B042B08D94FF0A00383F31188BC
:10132000BFF36F8FBFF34F8FFEE7089BF362336409
:10133000341D2046FFF7C7FB06F11800FFF7C3FB7B
:101340003661089BC3F10503B3617662281F4844E8
:101350004246394620F0070000F084FE3060099BC9
:1013600003B11E6000F0A6FE3E4A1368013313600D
:101370003D4B1B68002B42D03C4B1B683BB93A4BA2
:101380001B68DA6AF36A9A429CBF374B1E60384A80
:10139000136801331360F36A3649086801229A40E2
:1013A00002430A60344A03EB830302EB83035B6866
:1013B000B3609968F1604C609C60F36A03EB830151
:1013C000880002EB8101716111580131115000F068
:1013D00093FE264B1B68002B3FD0234B1B68DA6A19
:1013E000F36A9A423BD24FF0E0234FF08052C3F8A9
:1013F000042DBFF34F8FBFF36F8F01202BE01A4BEB
:101400001E601368012BC2D11B4D05F164072846ED
:10141000FFF74EFB1435BD42F9D1184F3846FFF7A0
:1014200047FB174D2846FFF743FB1648FFF740FBE5
:101430001548FFF73DFB1548FFF73AFB144B1F60BB
:10144000144B1D60A3E7484600F0E8FF4FF0FF3063
:1014500001E04FF0FF30BDE8F8830120FBE70120F9
:10146000F9E700BFFC040020D4050020F0040020B0
:10147000E0040020F4040020700500205C0500203A
:10148000480500202C05002018050020000500203C
:10149000440500204005002000B583B01A4B01939D
:1014A00000230093822219491948FFF709FF0128F8
:1014B00007D0B0F1FF3F1DD0164B1B6803B05DF89D
:1014C00004FB00F077FD0128F3D14FF0A00383F374
:1014D0001188BFF36F8FBFF34F8F0F4B4FF0FF3269
:1014E0001A600E4B01221A600D4B00221A6000F0A8
:1014F0006BFEE1E74FF0A00383F31188BFF36F8F1A
:10150000BFF34F8FFEE700BFD80400208C274000B8
:10151000A111400004000020DC040020F0040020A1
:10152000F8040020024A136801331360704700BFBB
:10153000D4040020014B1868704700BFF804002055
:10154000014B1868704700BFFC040020654B1B6806
:10155000002B40F0C1802DE9F047634B1C6801343B
:101560001C60C4B9614B1B681B6843B14FF0A003FA
:1015700083F31188BFF36F8FBFF34F8FFEE75B4A92
:1015800011685B4B1868106019605A4A1368013380
:101590001360FFF7F1FD584B1B68A34200F28980EE
:1015A000524B1B681B684BB1002050490546DFF8C1
:1015B0004CC10126524ADFF84CE13AE000204E4B84
:1015C0004FF0FF321A6075E04B4B1F6072E0DF6A2C
:1015D000DCF800A006FA07F949EA0A09CCF80090FD
:1015E00007EB870702EB87077F689F60D7F80890B3
:1015F000C3F80C90C9F80480C7F80880DF6A07EBCD
:10160000870802EB8809C3F8149052F8288008F183
:10161000010807EB870742F82780DEF80080DF6AC1
:10162000D8F82C309F4288BF01200B681B68002B24
:10163000C5D00B68DB68DB685F68BC42C4D35F69F8
:10164000D3F80C80D3F80890C9F80880D3F8089034
:10165000C8F8049003F10408D7F80490C14504BF0A
:10166000D3F80C90C7F804905D61D7F8009009F1A9
:10167000FF39C7F80090D3F82890B9F1000FA6D031
:101680001F6AD3F81CA0CAF80870D3F81CA0C7F8CA
:1016900004A003F11807D9F804A0BA4504BF1F6AD3
:1016A000C9F804709D62D9F80070013FC9F8007054
:1016B0008DE70020134B1B68DB6A03EB83039B0061
:1016C0000F4AD358022B28BF01200F4B1B68002B59
:1016D00018BF0120BDE8F0870C4A1368013313607E
:1016E00000207047D4040020F804002044050020A6
:1016F00040050020E4040020DC040020F404002065
:1017000070050020D4050020E8040020EC0400202F
:101710002DE9F843594B1B6843B94FF0A00383F3FD
:101720001188BFF36F8FBFF34F8FFEE700F0C2FC4D
:10173000524B1A68013A1A601B68002B40F09680E1
:101740004F4B1B68002B00F097804E4B1B68002B03
:101750006CD0DFF830C100204B494FF0010E4B4AEE
:101760004B4C4C4DDCF80C30DB689E6A1F6AD3F89A
:101770001C80C8F80870D3F81C80C7F8048003F1F7
:101780001807D6F80480B84504BF1F6A77609862CE
:101790003768013F37605E69DF68D3F80880C8F8B2
:1017A0000870D3F80880C7F804801F1DD6F804809D
:1017B000B84504BFD3F80C80C6F804805861D6F849
:1017C000008008F1FF38C6F80080DE6AD1F800908A
:1017D0000EFA06F848EA0908C1F8008006EB86060A
:1017E00002EB860676689E60D6F80880C3F80C8007
:1017F000C8F80470B760DE6A06EB860702EB87085C
:10180000C3F8148052F82770013706EB860642F8B9
:1018100026702768DE6AFB6A9E4288BFC5F800E032
:10182000DCF80030002B9DD1FFF7A6FC1A4B1C689A
:101830006CB1184E012501E0013C05D0FFF786FE92
:101840000028F9D03560F7E7134B00221A60114BDE
:101850001C6864B14FF0E0234FF08052C3F8042DB0
:10186000BFF34F8FBFF36F8F012400E0002400F01F
:1018700043FC2046BDE8F8830024F8E7D4040020A8
:10188000FC0400202C050020F4040020700500203A
:10189000D4050020E8040020EC04002038B558B13D
:1018A0000C46054689B94FF0A00383F31188BFF3B6
:1018B0006F8FBFF34F8FFEE74FF0A00383F31188C4
:1018C000BFF36F8FBFF34F8FFEE71D4B1B6843B114
:1018D0004FF0A00383F31188BFF36F8FBFF34F8FD7
:1018E000FEE7FFF71FFE174B18682B681C44834266
:1018F00009D9A34202D82C60002411E0A04209D3E8
:101900002C6000240CE0A34204D8A04202D32C6037
:10191000002405E02C600021201AFFF779FC012447
:10192000FFF7F6FE48B94FF0E0234FF08052C3F8BE
:10193000042DBFF34F8FBFF36F8F204638BD00BF1C
:10194000D4040020F80400201F4B1B681BB11F4B60
:1019500001221A6070471D4B00221A601C4B1B6845
:10196000B3FA83F3DBB2C3F11F0303EB83029200EC
:1019700018498A5842B94FF0A00383F31188BFF386
:101980006F8FBFF34F8FFEE7124A03EB830102EB29
:10199000810148684068486003EB830102EB8102E3
:1019A0000832904209D003EB83030A4A02EB830317
:1019B0005B68DA68084B1A607047064A02EB8102DE
:1019C000D1685160EFE700BFD4040020E804002094
:1019D000F404002070050020D405002058B110B593
:1019E0000C46094A11681831FFF770F801212046AA
:1019F000FFF70EFC10BD4FF0A00383F31188BFF377
:101A00006F8FBFF34F8FFEE7D405002038B5E0B1EC
:101A10008C46114605464268104B1868C26118682A
:101A20009468046218681830606018681830906014
:101A30001B689D622B6801332B6000290CBF604638
:101A40004FF0FF30FFF7E4FB38BD4FF0A00383F306
:101A50001188BFF36F8FBFF34F8FFEE7D4050020CF
:101A6000C368DB68002B4FD030B49A6AD869196A12
:101A70008160D869486003F118005168814204BF51
:101A8000196A516000219962116801391160294A6F
:101A90001268002A41D15A699868D96881609868AB
:101AA0004860181D5168814204BFD9685160002107
:101AB0005961116801391160DA6A1F4C25680121EA
:101AC0009140294321601D4902EB820201EB820211
:101AD00052689A609468DC6060609060DA6A02EB39
:101AE0008200840001EB80005861085901300851E0
:101AF000134A1168DA6ACB6A9A4283BF0120114BFC
:101B00001860002030BC70474FF0A00383F31188A9
:101B1000BFF36F8FBFF34F8FFEE70B4A5168D96158
:101B20008C681C62606088609A6211680131116083
:101B3000DEE700BFD4040020F4040020700500207C
:101B4000D4050020E80400202C050020034B1B686E
:101B50000360034B1B684360704700BFE404002030
:101B6000F804002038B5B8B10C460546E9B100F0DC
:101B7000A1FA1C4B1A682368B3F1FF3F2DD06968A6
:101B800019480068D5F800C0844517D0914215D88F
:101B900000232360012421E04FF0A00383F3118888
:101BA000BFF36F8FBFF34F8FFEE74FF0A00383F3B8
:101BB0001188BFF36F8FBFF34F8FFEE7501A834238
:101BC00003D800232360012408E09B1A0B44236000
:101BD0002846FFF7BBFF002400E0002400F08CFA49
:101BE000204638BDF8040020E4040020014B012207
:101BF0001A607047E8040020054B1B6833B1054BA1
:101C00001868B0FA80F04009400070470120704722
:101C1000F0040020D4040020002851D070B5044600
:101C2000294B1B68834208D04FF0A00383F311882F
:101C3000BFF36F8FBFF34F8FFEE7436C43B94FF095
:101C4000A00383F31188BFF36F8FBFF34F8FFEE7BD
:101C5000013B4364C16A026C914233D00BB1002056
:101C600070BD051D2846FEF74AFF38B917490B68B5
:101C7000E06A0122824023EA02030B60236CE362E4
:101C8000C3F10502A26111490E68012000FA03F2B6
:101C900032430A600E4A03EB830302EB83035B6863
:101CA000A3609968E1604D609D60E36A03EB830186
:101CB0008D0002EB81016161515901445151CFE71F
:101CC000002070470020CBE7D4050020F40400205A
:101CD0007005002008B54160006191420CD8D21A0D
:101CE00083699A4201D3012008BD011D094B186880
:101CF000FEF7ECFE0020F7E79A4201D2994206D2A5
:101D0000011D054B1868FEF7E1FE0020ECE70120FD
:101D1000EAE700BFE4050020E805002070B50446AE
:101D20000D46164604E0A3691D44236A20469847E1
:101D3000A1692B46324629442046FFF7CBFF0028F5
:101D4000F1D170BD70B505460E460D4B1B68DB68C2
:101D5000DC68201DFEF7D3FE94F8243013F0040F46
:101D600007D123F0010384F82430236A20469847E2
:101D700070BD324629462046FFF7D0FFF5E700BF89
:101D8000E8050020F8B50546FFF7D4FB0446104BE4
:101D90001B68834205D800232B600D4B1C60204636
:101DA000F8BD0C4B1B681A685AB14FF0FF37094E4B
:101DB000DB6839461868FFF7C5FF33681A68002AE0
:101DC000F6D1054A10680349086013600123E3E770
:101DD000D8050020E8050020E40500202DE9F041A9
:101DE00086B05D4F5D4D3B681E68002E00F0908010
:101DF000DB681E68FFF796FB02A8FFF7C3FF0446E7
:101E0000029A4AB9864200F29380FFF781FC21468C
:101E10003046FFF797FF01E0FFF77AFC002406E069
:101E200005990498039B9847029B002B09DA2246E8
:101E300002A92868FFF7C8F80028D4D0029B002B1D
:101E4000EEDB049E736913B1301DFEF758FE01A846
:101E5000FFF798FF8046029B013B082BE7D8DFE89D
:101E600003F00505293049050529300096F824308E
:101E700043F0010386F82430039BB16902461944FC
:101E80003046FFF727FF0028D1D096F8243013F012
:101E9000040F07D123F0010386F82430336A30465B
:101EA0009847C4E7B3694246039919443046FFF79F
:101EB00035FFF3E796F8243023F0010386F8243049
:101EC000B5E796F8243043F0010386F824300399EF
:101ED000B16131B10346024601443046FFF7FAFED4
:101EE000A5E74FF0A00383F31188BFF36F8FBFF313
:101EF0004F8FFEE796F8243013F0020F04D023F042
:101F0000010386F8243092E7304600F087FA8EE726
:101F1000FFF708FB02A8FFF735FF0446029B002BE2
:101F20007FF47AAF0E4B1B681A68B2FA82F252093C
:101F3000311B2868FFF7F8F8FFF7EAFB00287FF469
:101F40006DAF4FF0E0234FF08052C3F8042DBFF384
:101F50004F8FBFF36F8F61E7E8050020E005002099
:101F6000E405002038B500F0A5F80D4B1B6813B14F
:101F700000F0C2F838BD0B4D2846FEF799FD0A4C1B
:101F80002046FEF795FD094B1D60094B1C600022A1
:101F900010210520FEF700FF014B1860E8E700BFA5
:101FA000E005002000060020EC050020E8050020E8
:101FB000E405002000B583B0FFF7D4FF0D4B1B688C
:101FC0005BB10D4B01930223009300234FF4827207
:101FD0000A490B48FFF774F940B94FF0A00383F3A7
:101FE0001188BFF36F8FBFF34F8FFEE703B05DF82B
:101FF00004FB00BFE0050020DC0500209427400022
:10200000DD1D400082B0002301930D4B1B68B3F12E
:10201000FF3F08D04FF0A00383F31188BFF36F8F09
:10202000BFF34F8FFEE74FF0A00383F31188BFF398
:102030006F8FBFF34F8F019B002BFCD002B0704716
:102040000800002006480068006880F3088862B62F
:1020500061B6BFF34F8FBFF36F8F00DF00BF00008B
:1020600008ED00E04FF0807340F8043C21F00101DE
:1020700040F8081C034B40F80C3C40F8202C40383A
:10208000704700BF05204000000000000000000075
:10209000074B19680868B0E8F00F80F30988BFF3B0
:1020A0006F8F4FF0000080F311884EF00D0E7047D7
:1020B000D40500204FF0A00383F31188BFF36F8F86
:1020C000BFF34F8F0B4A136801331360012B00D00D
:1020D00070474FF0E023D3F8043D13F0FF0FF7D023
:1020E0004FF0A00383F31188BFF36F8FBFF34F8FBF
:1020F000FEE700BF08000020094B1B6843B94FF002
:10210000A00383F31188BFF36F8FBFF34F8FFEE7F8
:10211000013B034A13600BB983F31188704700BF7A
:102120000800002000000000000000000000000087
:10213000EFF30980BFF36F8F0D4B1A6820E9F00FA2
:1021400010602DE908404FF0A00080F31188FFF7E0
:10215000FBFB4FF0000080F31188BDE808401968D0
:102160000868B0E8F00F80F30988BFF36F8F7047FD
:10217000D405002008B54FF0A00383F31188BFF306
:102180006F8FBFF34F8FFFF7E1F928B14FF0E023D6
:102190004FF08052C3F8042D002383F3118808BD4B
:1021A0004FF0E022002313619361054B1B68054942
:1021B000A1FB03139B09013B536107231361704784
:1021C00000000020D34D621010B582B02C4B1A785D
:1021D000D2B20192FF221A701B78DBB28DF8033065
:1021E0009DF8033003F0A003264A1370264B072204
:1021F0001A609DF8033013F0800F13D006229DF86B
:1022000003305B00DBB28DF803309DF803101046FD
:10221000013A11F0800FF2D11B4A10608DF80330A3
:10222000032808D04FF0A00383F31188BFF36F8F0A
:10223000BFF34F8FFEE7144B4FF440721A60019BBF
:10224000DBB20F4A13704FF0E023D3F8202D42F495
:102250007002C3F8202DD3F8202D42F07042C3F84D
:10226000202DFFF79DFF0024084B1C60FFF7EAFEBE
:10227000FFF76AFBFFF7C6FE204602B010BD00BFA5
:1022800000E400E0180600201406002008000020EA
:1022900010B4144B1A461B688342FBD354681119BF
:1022A000884209D0446801198B420FD003608242F2
:1022B00000D0106010BC70474168214451600C464A
:1022C00011448B4201D01360F4E7104606490968B7
:1022D0008B4205D05B682344436013681B68E5E7C5
:1022E0000B46E3E7300600202C06002070B50446BC
:1022F000FFF718F9434B1B68A3B1002C7CD004F006
:102300000700A0F11103A34276D304F1100CACEB4B
:102310000001002970DD3C4B1D688D426CD33B4AA7
:10232000146823E03A4A12F0070F1AD0D11D21F0A9
:10233000070102F52042531A0A4634480260002180
:1023400041601344083B23F007032E4803605960A3
:102350001960991A516013602E4B19602A4B19604D
:10236000CBE74FF42043E8E722461C4663688B42E4
:1023700002D22368002BF7D1224B1B68A3423BD02B
:102380001668083623681360A0EB0C0362681344D8
:10239000102B10D9601810F0070F08D04FF0A003D1
:1023A00083F31188BFF36F8FBFF34F8FFEE7436056
:1023B0006160FFF76DFF6368ED1A134A1560154AF7
:1023C000126895423CBF134A156043F000436360B6
:1023D00000232360104A136801331360FFF798F954
:1023E00016F0070F0BD04FF0A00383F31188BFF353
:1023F0006F8FBFF34F8FFEE7FFF78AF90026304655
:1024000070BD00BF2C0600202806002030060020EA
:1024100038060020240600202006002088B310B5CE
:10242000044650F8043C002B08DB4FF0A00383F374
:102430001188BFF36F8FBFF34F8FFEE750F8082C62
:1024400042B14FF0A00383F31188BFF36F8FBFF346
:102450004F8FFEE723F0004340F8043CFFF762F89B
:10246000084A54F8043C11680B441360A4F10800B6
:10247000FFF70EFF044A136801331360FFF748F9B2
:1024800010BD7047280600201C06002000230146CE
:102490001A46184600F026B938B5084D084BED1A13
:1024A000AC1007D0043D1D44013C55F80439984751
:1024B000002CF9D1BDE8384000F07CB9C4274000B9
:1024C000C027400070B50D4E0D4D761BB61006D0DE
:1024D000002455F8043B01349847A642F9D1094E2F
:1024E000094D761B00F05CF9B61006D0002455F8B3
:1024F000043B01349847A642F9D170BDAC27400097
:10250000AC274000B4274000AC274000844641EA95
:10251000000313F003036DD1403A41D351F8043B5B
:1025200040F8043B51F8043B40F8043B51F8043BAD
:1025300040F8043B51F8043B40F8043B51F8043B9D
:1025400040F8043B51F8043B40F8043B51F8043B8D
:1025500040F8043B51F8043B40F8043B51F8043B7D
:1025600040F8043B51F8043B40F8043B51F8043B6D
:1025700040F8043B51F8043B40F8043B51F8043B5D
:1025800040F8043B51F8043B40F8043B51F8043B4D
:1025900040F8043B51F8043B40F8043B403ABDD2BC
:1025A000303211D351F8043B40F8043B51F8043B5E
:1025B00040F8043B51F8043B40F8043B51F8043B1D
:1025C00040F8043B103AEDD20C3205D351F8043BED
:1025D00040F8043B043AF9D2043208D0D2071CBFB9
:1025E00011F8013B00F8013B01D30B8803806046E2
:1025F000704700BF082A13D38B078DD010F0030358
:102600008AD0C3F10403D21ADB071CBF11F8013BC7
:1026100000F8013B80D331F8023B20F8023B7BE716
:10262000043AD9D3013A11F8013B00F8013BF9D241
:102630000B7803704B7843708B78837060467047DB
:10264000830730B548D0541E002A3FD0CAB2034693
:1026500001E0013C3AD303F8012B9D07F9D1032C8B
:102660002DD9CDB245EA05250F2C45EA054536D9C9
:10267000A4F1100222F00F0C03F1200EE6444FEA01
:10268000121C03F1100242E9045542E902551032CE
:102690007245F8D10CF1010214F00C0F03EB021299
:1026A00004F00F0C13D0ACF1040323F00303043344
:1026B000134442F8045B9342FBD10CF003042CB1A9
:1026C000C9B21C4403F8011B9C42FBD130BD6446D7
:1026D0001346002CF4D1F9E703461446BFE71A4627
:1026E000A446E0E72DE9F8431D4D064628689846C4
:1026F0000F46914600F042F81A4B1B68D3F8484148
:102700001CB3286865681F2D24DC4EB96B1C02358C
:10271000636044F8257000F033F80020BDE8F883CA
:1027200004EB85010123C1F88890D4F88821AB40DF
:102730001A43022EC4F88821C1F80881E6D1D4F8E2
:102740008C211A43C4F88C21E0E703F5A674C3F882
:102750004841D6E700F014F84FF0FF30DEE700BF45
:10276000380400209C274000024B13B10248FFF7B9
:102770008DBE70470000000099244000704700BFE4
:10278000704700BF527800005458000049444C453F
:1027900000000000546D722053766300100000208A
:1027A000F8B500BFF8BC08BC9E46704769274000DA
:1027B000F1004000F8B500BFF8BC08BC9E46704769
:0427C000CD00400008
:1027C40000093D0004000000AAAAAAAA0000000013
:1027D40000000000FC02002064030020CC03002061
:1027E40000000000000000000000000000000000E5
:1027F40000000000000000000000000000000000D5
:1028040000000000000000000000000000000000C4
:1028140000000000000000000000000000000000B4
:1028240000000000000000000000000000000000A4
:102834000000000000000000000000000000000094
:102844000000000000000000000000000000000084
:102854000000000000000000000000000000000074
:102864000000000000000000000000000000000064
:102874000000000000000000010000000000000053
:102884000E33CDAB34126DE6ECDE05000B00000018
:102894000000000000000000000000000000000034
:1028A4000000000000000000000000000000000024
:1028B4000000000000000000000000000000000014
:1028C4000000000000000000000000000000000004
:0C2BF400000000000000000038A60020D7
:04000005004008614E
:00000001FF
